:1005FE002A2A2A554E4951554520494420434152F5
:10060E00442A2A2A002A2A2A2A2A2A2044455349D9
:10061E00474E202A2A2A2A2A2A002A2A2A2A2A2A1F
:10062E00205553494E47202A2A2A2A2A2A2A002AA6
:10063E0020534D41525420544543484E4F4C4F4742
:10064E0059202A00202057454C434F4D45205553E5
:10065E004552410041544D205445524D494E414C56
:10066E002E2E2E2E2E2E0020504C5A20454E544506
:10067E00522050494E204E4F2E00596F75722072E7
:10068E00657175657374206973200050726F6365B0
:10069E007373696E672E2E2E2E2E2E2E2E00506CFC
:1006AE0065617365207761697400202048454C4C64
:1006BE004F2057454C434F4D4520544F202000208E
:1006CE0020202041544D205445524D494E414C203E
:1006DE00202020002020464F4C4C4F572054484598
:1006EE00204D454E55002A2020202057495448447D
:1006FE005241570064202020204445504F53495406
:10070E0000232020202042414C414E434520454E9F
:10071E005155495259005920202059455320202027
:10072E00202078202020455849540055522041431E
:10073E00434F554E542042414C414E43453A005290
:10074E00532E002F2D004445504F534954204D4FEA
:10075E004E45590049462059455320505245535352
:10076E00202059004C494D49542043524F53532099
:10077E00202020004F4C442042414C414E43453AEC
:10078E00004E45572042414C414E43453A00796F49
:10079E007572206465706F73697420737563636519
:1007AE007373004445504F534954204E4F542050BC
:1007BE004F535349424C45005749544844524157B0
:1007CE00204D4F4E455900504C5A20454E544552DF
:1007DE0020414D4F554E5400504C454153452043FA
:1007EE004F4C4C4543542043415348004D41494ED4
:1007FE005441494E204D494E2042414C414E4345B5
:10080E0000594F552057414E5420544F2050524FAF
:10081E00434545443F007920202059455320202050
:10082E0020202020782020204E4F00202020504CC9
:10083E004541534520434845434B00594F5552209F
:10084E004143434F554E542042414C414E43450087
:10085E0020202020504C4541534520454E544552B2
:10086E0020200020204D554C5449504C45204F46D9
:10087E002031303020002020205448414E4B20594A
:10088E004F5520464F5220202020002020555349FE
:10089E004E472041544D205445524D494E414C0037
:1008AE002050415353574F5244204E4F54204D41E8
:1008BE005443480050414E204341524420494E4635
:1008CE004F2E2E2E2E2E0020504C5A20454E544583
:1008DE00522050415353574F524400204E414D45E4
:1008EE0020203A2055534552410020532F6F20208F
:1008FE00203A2046415448455200442E4F2E422065
:10090E00203A2044442F4D4D2F59595959005041EA
:10091E004E204E4F203A20414231344B34354C005C
:10092E0020202020564F54494E47205359532E2EE7
:10093E0020005041525459312E2E2E2E202D2D2D69
:10094E002D2D3E202031005041525459322E2E2E44
:10095E002E202D2D2D2D2D3E202032005041525473
:10096E0059332E2E2E2E202D2D2D2D2D3E20203383
:10097E00005041525459342E2E2E2E202D2D2D2D19
:10098E002D3E20203400564F54454420464F5220D1
:10099E0050415254593100564F54454420464F52FF
:1009AE002050415254593200564F54454420464F20
:1009BE00522050415254593300564F54454420460C
:1009CE004F5220504152545934005448414E4B53CB
:1009DE0020464F5220564F54494E4700564F5445CD
:1009EE0020434F4D504C45544544002A2A57454C00
:1009FE00434F4D4520204F4646494345522A2A0033
:100A0E00564F54494E472053595354454D2049444F
:100A1E003A31303100524553455420564F54494EC9
:100A2E00472053595354454D002A2A20564F5449B6
:100A3E004E472053595354454D202A2A2A00202030
:100A4E00202020205245534554454420202020206C
:100A5E000057616974696E6720466F722043617238
:100A6E00642E2E2E2E00456E746572207061737387
:100A7E00776F72643A006361726420697320696EE5
:100A8E007365727465640050726F63657373696E1B
:100A9E00672E2E2E2E2E2E004141410A0052454128
:100AAE004420333220350A002A2055522043415229
:100ABE00442049532056414C4944202A00506C731F
:100ACE002072656D6F766520436172642E2E2E2E18
:100ADE002E00313A2020202050414E2043415244D6
:100AEE0020494E464F2E00323A2020202041544DB0
:100AFE00205445524D494E414C202000333A20207F
:100B0E002020564F54494E472053595354454D209B
:100B1E0000343A20202020202045584954202020FF
:100B2E002020202020002A555220434152442049A3
:100B3E005320494E56414C49442A00506C73207242
:100B4E00656D6F766520436172642E00504C454191
:100B5E00534520494E5345525420434152440020A0
:100B6E00202020202050524F5045524C59202020FA
:100B7E0020202000506C732052656D6F76652043E7
:090B8E006172642E2E2E2E2E0041
:1015FA00063C555345524100064252455345540054
:10160A00C103025900000632313233343500065C18
:10161A0035343332310010213132333435363738EC
:08162A0039302A23207864798D
:0F16CB00D2B67F647E001216DAC2B67F647E004C
:1016DA00EF1FAA0670011E4A6015E4FCFDC3ED94D3
:0F16EA00FAEC6480948050E80DBD00010C80EE96
:0116F90022CE
:100003007F021217377F281217377F0C1217377F9B
:09001300061217377F01021737AE
:0F1728007F941217371216337F011217377F8005
:10173700EF54F04408F580E4F580EFC454F0440812
:0B174700F580E4F5807F01FE0216DA59
:0717C7007F101217377F208D
:1017CE00EF54F0440AF580E4F580EFC454F0440A77
:0B17DE00F580E4F5807F01FE0216DAC2
:0B169B007FC01217377BFF7A06799999
:1016A6008B0A8A0B890CAB0AAA0BA90C120E2B60AB
:1016B60013050CE50C7002050B14F9120E2BFF1224
:0516C60017CE80E222B6
:0414BF00AF64AE6305
:0414C3008E0A8F0BF3
:1014C700E4F512F513C3E50A940050107F2D1217A7
:1014D700CEC3E4950BF50BE4950AF50AE50B450A2F
:1014E70070057F301217CED3E50B9400E50A940000
:1014F700402EAE0AAF0B7C007D0A120E56ED24304B
:10150700FF0513E5137002051214240CF8A607AEA5
:101517000AAF0B7C007D0A120E568E0A8F0B80C70E
:10152700E5131513AE1270021512C39401EE940061
:0E153700400C740C2513F8E6FF1217CE80E26C
:011545002283
:030023000215467D
:10154600C0E0C0D075D000C000C007309906C2996F
:10155600D201804030983D7898A699E6FF640D60E8
:1015660015EF640A6010055AE55A700205591424ED
:1015760066F8A607800E055AE55A70020559142426
:1015860066F876007898E6B40A08D20375590075AD
:0D1596005A00C298D007D000D0D0D0E0326B
:101752008B098A0A890BAB09AA0AA90B120E2B6004
:1017620016C201050BE50B7002050A14F9120E2BC5
:08177200F5992001E180FB2242
:10137600C2A7C2A6C2A1C2A0D2A2D2A3D2A4D2A5FB
:1013860030A50930A40630A30320A2F4C2A0D2A13E
:10139600D2A6D2A730A50930A40630A30320A20501
:1013A600E4F5388049D2A0C2A1D2A6D2A730A509B9
:1013B60030A40630A30320A2057538018030D2A0E0
:1013C600D2A1C2A6D2A730A50930A40630A3032015
:1013D600A2057538028017D2A0D2A1D2A6C2A73024
:1013E600A50930A40630A30320A2A175380320A5C1
:1013F60005E4F531801620A405753101800E20A381
:1014060005753102800620A20375310330A5FD3033
:10141600A4FA30A3F730A2F47F327E001216DAE582
:0D1426003825E025E024212531F8E6FF22DD
:10163300E4FB1213768F5BE55B64236023E55BB405
:101643002A0EEB60ED1B1217C77F1012173780E2CB
:10165300AF030B74482FF8A65B7F2A1217CE80D2F4
:0616630074482BF8E4F6C8
:01166900225E
:0B17E900C291D29000D29100C20222F7
:0917F400C29100C2900002177AB4
:10177A00753980E5395F6004D2918002C291D290B6
:10178A00C290E539C313F539D3940050E6D291D209
:08179A0090A2919200C290227E
:10166A00E4FE753980D29000309104E5394206C211
:10167A009000E539C313F539D3940050E8BF01044B
:10168A00D2918002C291D29000C29000D291AF064C
:01169A00222D
:0B16FA00F557856458AB577D027FA0B8
:041705008D0A8B0BB3
:101709001217F4AF0A12177AAF0B12177A1217E9E8
:0E171900E4FFFE0FBF00010EBE07F8BF08F58B
:01172700229F
:0617A2008F577D037FA0BC
:0417A8008F0A8D0B0C
:1017AC001217F4AF0B12177A1217E9E50A04FF129D
:0A17BC0017F47F0112166A1217E9F4
:0117C6002200
:1015A300C2B6C2B7758921759850758780758DFD50
:1015B300D28E75A8921200037BFF7A0579FE12166C
:1015C300A67FC01217377BFF7A0679131216A67F00
:1015D300941217377BFF7A0679281216A67FD41246
:1015E30017377BFF7A06793D1216A67FD07E071246
:0715F30016DA7F0102173731
:100026007F011217377BFF7A0679521216A67FC018
:100036001217377BFF7A0679621216A67FD412173B
:10004600377BFF7A0679751216A61217287BFF7A78
:100056000679881216A612169B7F941217377BFF15
:100066007A0679AC1216A678327C007D007B007A7F
:10007600007948121049EF60030205DE1217307B43
:10008600FF7A0679B81216A67FC01217377BFF7A59
:100096000679CD1216A67FD41217377BFF7A06791A
:1000A600E21216A67FC87E001216DAE4F562D2B70F
:1000B6001216D6C2B71216D60562C3E562648094DC
:1000C6008540EB1217307BFF7A0679F41216A67F6D
:1000D600C01217377BFF7A0779021216A67F941291
:1000E60017377BFF7A07790F1216A67FD4121737B8
:1000F6007BFF7A0779241216A61213768F65E565BB
:1001060070030205FDE565642370617F01121737F0
:100116007BFF7A0779391216A67FC01217377D0240
:100126007FA01217A81217A28F587563008557640F
:10013600E564F563E558F5647BFF7A07794D121699
:10014600A61214BF7BFF7A0779511216A6E4F5634F
:10015600F564F562D2B71216D6C2B71216D6056284
:10016600C3E5626480948540EB0205A8E565646496
:10017600600302035BE4F53AF53B7F011217377B18
:10018600FF7A0779541216A67FD41217377BFF7AA7
:100196000779621216A67FC01217371213768F657B
:1001A600E565642A702A1217C77F101217371509DA
:1001B600E509C394C050087509C0AF09121737AED8
:1001C6003AAF3B7C007D0A120E568E3A8F3B803743
:1001D600E565C39430402AE565D394395023050973
:1001E600AF651217CE74D02565F565AE3AAF3B7C88
:1001F600007D0A120E44EF2565F53BEC3EF53A808C
:1002060006E5656479602BAE3AAF3BE4FCFD7B50B6
:100216007AC3F9F8C3120EAB50817F801217377B71
:10022600FF7A0779721216A67FE87E031216DA02A3
:10023600017B7D027FA01217A81217A28F58756343
:1002460000855764E564F563E558F5641217307B5D
:10025600FF7A0679881216A612169B7F9412173714
:100266007BFF7A0679AC1216A67FBC7E021216DADE
:100276001217307BFF7A0779821216A61214BF1264
:1002860016D6AE63AF64AB07AA06C374FF9BFB74B6
:10029600FF9AFAE49400F9E49400F8AE3AAF3BE42E
:1002A600FCFDD3120EAB5003020339E53B2564F582
:1002B60064E53A3563F5637FC01217377BFF7A072B
:1002C600798F1216A61214BF7F2C7E011216DAE55C
:1002D600631216FAAB587D037FA01217051217306A
:1002E6007BFF7A07799C1216A67FC01217377BFF11
:1002F6007A0779391216A67F941217377D027FA0E6
:100306001217A81217A28F58756300855764E56403
:10031600F563E558F5647BFF7A07794D1216A61248
:1003260014BF7BFF7A0779511216A6E4F563F564CC
:100336000205A81217307BFF7A0779B11216A6E4D8
:10034600F562C3E5626480948540030200C9121613
:10035600CB056280EDE565642A60030205B2F53AD5
:10036600F53B7F011217377BFF7A0779C61216A66F
:100376007FD41217377BFF7A0779620204047FC0A5
:100386001217371213768F65E565642A702A1217DD
:10039600C77F101217371509E509C394C0500875B1
:1003A60009C0AF09121737AE3AAF3B7C007D0A127F
:1003B6000E568E3A8F3B80CBE565C394304028E5D8
:1003C60065D394395021AF651217CE74D02565F5E3
:1003D60065AE3AAF3B7C007D0A120E44EF2565F50B
:1003E6003BEC3EF53A809CE56564797096E53B45C5
:1003F6003A70117F941217377BFF7A0779D5121658
:10040600A6020384AE3AAF3B7C007D64120E56ED25
:100416004C60030205597D027FA01217A81217A28D
:100426008F58756300855764E564F563E558F56490
:10043600D3E53B9564E53A95634003020504C3E5BD
:1004460064953BFFE563953AFEC3EF94F4EE9401A1
:100456004068C3E564953BF564E563953AF5631238
:1004660016FAAB587D037FA01217057F01121737C6
:100476007BFF7A0679881216A612169B7F941217AE
:10048600377BFF7A0679AC1216A67FBC7E0212165F
:10049600DAE4F562D2B71216D6C2B71216D60562DC
:1004A600C3E5626480948540EB7F011217377BFFBA
:1004B6007A0779E61216A60205531217307BFF7AE1
:1004C6000779FA1216A67FC01217377BFF7A0879CA
:1004D6000F1216A67FD41217377BFF7A08792412DB
:1004E60016A61213768F65E56564796005E565B431
:1004F60078F5E565647960030205FD020458121774
:10050600307BFF7A0679881216A612169B7F941204
:1005160017377BFF7A0679AC1216A67FE87E0312A0
:1005260016DA1217307BFF7A0879391216A67FC0C1
:100536001217377BFF7A0879491216A6E4F562127C
:1005460016CB0562C3E5626480948540F27FC87E5F
:100556000080531217307BFF7A0679881216A6128E
:10056600169B7F941217377BFF7A0679AC1216A674
:100576007FBC7E021216DA1217307BFF7A08795E8C
:100586001216A67FC01217377BFF7A0879711216EA
:10059600A6E4F5621216CB0562C3E5626480948513
:1005A60040F27FF47E011216DA0200C9E56564782E
:1005B60060030200C97F011217377BFF7A0879842E
:1005C6001216A67FC01217377BFF7A087999121682
:1005D600A67FF47E010216DA7F011217377BFF7AB7
:1005E6000879AE1216A6E4F5621216CB0562C3E5CB
:0705F600626480948540F26D
:0105FD0022DB
:1012AB007F011217377BFF7A0679521216A67FC081
:1012BB001217377BFF7A0879C21216A67FD4121742
:1012CB00377BFF7A0879D51216A61217287BFF7A7F
:1012DB000679881216A612169B7F941217377BFF7E
:1012EB007A0679AC1216A678327C007D007B007AE8
:1012FB00007948121049EF7054F562D2B71216D626
:10130B00C2B71216D60562C3E5626480948240EBC5
:10131B001217307BFF7A0879E91216A67FC01217D5
:10132B00377BFF7A0879F81216A67F941217377B52
:10133B00FF7A0979081216A67FD41217377BFF7A2A
:10134B0009791C1216A67FC47E090216DA12173011
:10135B007BFF7A0879AE1216A6E4F5621216CB055E
:0B136B0062C3E5626480948540F222BA
:10106600E4FD7FA01217A88F57E55760030211BF52
:101076007F011217377BFF7A0679521216A67FC0B8
:101086001217377BFF7A09792E1216A67FD412170C
:10109600377BFF7A0879D51216A61217287BFF7AB6
:1010A6000679881216A612169B7F941217377BFFB5
:1010B6007A0679AC1216A678327C007D007B007A1F
:1010C600007948121049EF600302119FF562D2B70A
:1010D6001216D6C2B71216D60562C3E562648094AC
:1010E6008240EB1217307BFF7A0979401216A67FF1
:1010F600C01217377BFF7A0979551216A67F94120C
:1011060017377BFF7A09796A1216A67FD41217372A
:101116007BFF7A09797F1216A61213768F65E5652D
:1011260064316011E5656432600BE5656433600522
:10113600E565B434E47B01E4FD7FA0121705E5659F
:10114600B4310B1217307BFF7A097994802EE5654E
:10115600B4320B1217307BFF7A0979A5801EE5653C
:10116600B4330B1217307BFF7A0979B6800EE5652A
:10117600B4340C1217307BFF7A0979C71216A67F92
:10118600BC7E021216DA1217307BFF7A0979D81262
:1011960016A67FBC7E020216DA7F011217377BFF86
:1011A6007A0879AE1216A6E4F5621216CB0562C36A
:1011B600E5626480948240F2221217307BFF7A093E
:1011C60079EA1216A6E4F5621216CB0562C3E56249
:0711D6006480948240F222C4
:1011DD007F011217377BFF7A0979F91216A67FBCAA
:1011ED007E021216DA7F011217377BFF7A0A790E0B
:1011FD001216A67FC01217377BFF7A0A79231216B3
:10120D00A67FD41217377BFF7A0879D51216A6124E
:10121D0017287BFF7A0679881216A612169B7F94E3
:10122D001217377BFF7A0679AC1216A6785C7C0014
:10123D007D007B007A007948121049EF7040F5620D
:10124D00D2B71216D6C2B71216D60562C3E56264BE
:10125D0080948340EBE4FBFD7FA01217051217303D
:10126D007BFF7A0A79371216A67FC01217377BFFDC
:10127D007A0A794C1216A67FE87E030216DA7F01F0
:10128D001217377BFF7A0879AE1216A6E4F56212B3
:0E129D0016CB0562C3E5626480948540F222A0
:100B97001215A31217307BFF7A0A795F1216A6E4A3
:100BA700F559F55AC2033003FD78667C007D007B5A
:100BB700FF7A0A7974121049EF6003020DDA7F8019
:100BC7001217377BFF7A0A79841216A67FC012178D
:100BD700377BFF7A0A79951216A67FF47E011216E3
:100BE700DA7BFF7A0A79A6121752C2033003FD7F18
:100BF700C0121737E4F559F55AC203FB7A00796634
:100C07001216A63003FD7F941217377B007A0079FE
:100C1700661216A67BFF7A0A79AB121752C2033007
:100C270003FD7F011217377B007A0079661216A63B
:100C37007FF47E011216DA78667C007D007B007AED
:100C470000793C121049EF6003020D227F801217D2
:100C5700377BFF7A0A79B61216A6E4F562D2B71285
:100C670016D6C2B71216D60562C3E56264809485AC
:100C770040EB7F941217377BFF7A0A79CB1216A6BF
:100C8700C203E4F559F55A7866F63003FD7FC012C2
:100C970017377B007A0079661216A67FBC7E021290
:100CA70016DA1217307BFF7A0A79E01216A67FC090
:100CB7001217377BFF7A0A79F51216A67F94121757
:100CC700377BFF7A0B790A1216A67FD41217377B68
:100CD700FF7A0B791F1216A61213768F08E50864A0
:100CE700316011E5086432600BE50864336005E59F
:100CF70008B434E4E508B431051212AB80A4E50862
:100D0700B43205120026809AE508B433051210663E
:100D17008090E5086434708A020B9A78667C007DBF
:100D2700007B007A007942121049EF705C7F8012D5
:100D370017377BFF7A0A79B61216A6E4F562D2B79F
:100D47001216D6C2B71216D60562C3E5626480943E
:100D57008540EB7F941217377BFF7A0A79CB1216FF
:100D6700A6C203E4F559F55A7866F63003FD7FC04D
:100D77001217377B007A0079661216A67FBC7E02AF
:100D87001216DA1211DD020B9A7F801217377BFFDA
:100D97007A0B79341216A6E4F5621216CB0562C3F4
:100DA700E5626480948540F27F941217377BFF7A5F
:100DB7000B79491216A6C2033003FD7FC0121737FD
:100DC7007B007A0079661216A67FBC7E021216DABD
:100DD700020B9A1217307BFF7A0B795A1216A67FED
:100DE700C01217377BFF7A0B796D1216A67FE87E44
:100DF700031216DA7F011217377F941217377BFF1A
:100E07007A0B79821216A6C2033003FD7FD412171C
:100E1700377B007A0079661216A67FF47E011216D8
:040E2700DA020B9A46
:03000000021433B4
:0C143300787FE4F6D8FD75819802147AE9
:100E2B00BB010689828A83E0225002E722BBFE02C5
:090E3B00E32289828A83E49322F8
:100E4400EF8DF0A4A8F0CF8CF0A428CE8DF0A42EC2
:020E5400FE227C
:100E5600BC000BBE0029EF8DF084FFADF022E4CC80
:100E6600F875F008EF2FFFEE33FEEC33FCEE9DEC49
:100E7600984005FCEE9DFE0FD5F0E9E4CEFD22ED8F
:100E8600F8F5F0EE8420D21CFEADF075F008EF2FD9
:100E9600FFED33FD4007985006D5F0F222C398FDCA
:050EA6000FD5F0EA2267
:100EAB00EB9FF5F0EA9E42F0E99D42F0EC6480C8BE
:060EBB0064809845F0225E
:100EC100E3F5F009E208B5F06D606B80F3E3F5F04E
:100ED10009E608B5F060605E80F387F009E608B5C1
:100EE100F054605280F487F009E208B5F04860469A
:100EF10080F488828C8387F009E0A3B5F0386036EE
:100F010080F488828C8387F009E493A3B5F027608D
:100F11002580F388828C83E3F5F009E0A3B5F01610
:100F2100601480F388828C83E3F5F009E493A3B520
:100F3100F004600280F2020FEC808580E7808E80F1
:100F4100D2803C8015806C807E809B80B5808B80B8
:100F5100A1804F8070803A02100289828A83ECFA64
:100F6100E493F5F0A3C8C582C8CCC583CCE493A3B0
:100F7100C8C582C8CCC583CCB5F070606E80E189EC
:100F8100828A83E493F5F0A3E208B5F05E605C80A9
:100F9100F289828A83E0F5F0A3E608B5F04D604B53
:100FA10080F389828A83E0F5F0A3E208B5F03C6022
:100FB1003A80F389828A83E493F5F0A3E608B5F0D9
:100FC1002A602880F2805D89828A83ECFAE493F5B5
:100FD100F0A3C8C582C8CCC583CCE0A3C8C582C86C
:100FE100CCC583CCB5F004600280E27F00F845F007
:100FF100600EE863F0806480D395F01F40027F01AA
:101001002289828A83ECFAE0F5F0A3C8C582C8CCB4
:10101100C583CCE0A3C8C582C8CCC583CCB5F0CB11
:1010210060C980E389828A83ECFAE0F5F0A3C8C540
:1010310082C8CCC583CCE493A3C8C582C8CCC58380
:10104100CCB5F0A760A580E288F0ED2402B40400DD
:101051005099F582EB2402B40400508F232345827A
:0510610023900F3A731B
:10143F00020B97E493A3F8E493A34003F68001F221
:10144F0008DFF48029E493A3F85407240CC8C333AE
:10145F00C4540F4420C8834004F456800146F6DF7D
:10146F00E4800B01020408102040809015FAE47EFE
:10147F00019360BCA3FF543F30E509541FFEE49372
:10148F00A360010ECF54C025E060A840B8E493A339
:10149F00FAE493A3F8E493A3C8C582C8CAC583CA64
:1014AF00F0A3C8C582C8CAC583CADFE9DEE780BE1C
:0116320000B7
:00000001FF
